:0400000080314F28D4
:100008007E14803120007F08FC00111C4B28111041
:10001800F63097003B3096003C287A088D0074082B
:10002800203E8600870101088F0076082E287A086E
:100038008D007508203E8600870101088F0077082B
:100048002E287A088D002A08203E8600870101089C
:100058008F0078088D004B287A088D002B08203EE9
:100068008600870101088F0079088D00FB014B2865
:100078007B08FB0A003A03191128013A03191B28C7
:10008800033A03192528013A031930284B287C081C
:10009800FF007E10090080315128FB01C430840024
:1000A800803085007630860000308700053080314A
:1000B800BE208031B4308400803085002030860036
:1000C800003087000A308031BE207E102000803149
:1000D8006D2880319D208031F401F501F50A023048
:1000E8002000AC002C08AA000330AC002C08AB00A0
:1000F8000030F3000030F2000030F1000030F00072
:1001080000307302031D922800307202031D9228EA
:1001180000307102031D92286430700203187028A1
:100128000130F0070030F13D0030F23D0030F33D82
:10013800842873302100990023008D0121008D014E
:1001480023008F0121008F01FF3020008D00FF3038
:100158008F0011309800210011140B178B1708001D
:10016800C034F934A434B034993492348234F83435
:1001780080349034FE0012001E00FE0BBF280034AD
:0A018800FE34FD34FB34F734FF347D
:020000040001F9
:04000E00E4FFFFFE0E
:00000001FF
