:04000000803118280B
:100008007E14803120007F08F100111C1428111083
:100018003C309700AF3096000130F0007008F907C7
:100028007108FF007E10090080311A28F901FA01D1
:10003800B001DC308400813085002030860000303B
:1000480087000C308131E8217E10200081313E2963
:100200000D340A34203449346E3466346F34723419
:100210006D3461347434693463346134203441346E
:1002200070346C3469346334613474346134203430
:1002300032342E34203443346F3475346E34743495
:100240006534723420343D34203400340D340A34A3
:100250004934413432342E342034533469347234C6
:1002600020346334613472346134633474346534FB
:100270007234653420343D342034003481317C21A3
:10028000813114307902031C6E29F9017A08203E6D
:1002900086008701010820008F000130F8007808EF
:1002A000FA070A307A020318FA012630AC008130CE
:1002B000AD002630F2008130F3008131A22181317E
:1002C00073082000AF01AF077208AE01AE0781319D
:1002D000C32181317A08303E23009A002000911E0C
:1002E000412923001908F80078082000B0003008E0
:1002F000013E23009A004129733021009900230018
:100300008D0121008D0120008D01BF3021008E0064
:1003100020008E0123008F0121008F01FF3020007B
:100320008F000C3023009B009E161E119D171D167A
:100330009F111E12113020009800210011140B177C
:100340008B1708007308F701F7077208F601F60724
:100350007608840077088500000800380319B5295D
:100360000130F6070030F73DA8297209F40073093F
:10037000F500F40A0319F50A76087407F200770805
:10038000753DF300080020002F082E040319080013
:1003900020002C0884002D088500000823009A0006
:1003A0002000111ED0290130AC070030AD3DFF30D8
:1003B000AE07FF30AF3DC329C034F934A434B034A4
:1003C000993492348234F834803490340034813457
:0C03D000FE0012001E00FE0BE9290034A4
:020000040001F9
:04000E00E4FFFFFE0E
:00000001FF
